{
  "_format": "hh-sol-artifact-1",
  "contractName": "ComplexManagement",
  "sourceName": "contracts/ComplexManagement.sol",
  "abi": [
    {
      "inputs": [
        {
          "internalType": "address",
          "name": "_initialOwner",
          "type": "address"
        }
      ],
      "stateMutability": "nonpayable",
      "type": "constructor"
    },
    {
      "inputs": [
        {
          "internalType": "address",
          "name": "owner",
          "type": "address"
        }
      ],
      "name": "OwnableInvalidOwner",
      "type": "error"
    },
    {
      "inputs": [
        {
          "internalType": "address",
          "name": "account",
          "type": "address"
        }
      ],
      "name": "OwnableUnauthorizedAccount",
      "type": "error"
    },
    {
      "anonymous": false,
      "inputs": [
        {
          "indexed": false,
          "internalType": "string",
          "name": "complexId",
          "type": "string"
        },
        {
          "indexed": false,
          "internalType": "string",
          "name": "complexName",
          "type": "string"
        },
        {
          "indexed": false,
          "internalType": "string",
          "name": "complexCountry",
          "type": "string"
        },
        {
          "indexed": false,
          "internalType": "string",
          "name": "complexAddress",
          "type": "string"
        },
        {
          "indexed": false,
          "internalType": "string",
          "name": "complexSiteType",
          "type": "string"
        },
        {
          "indexed": false,
          "internalType": "string",
          "name": "complexIndustry",
          "type": "string"
        },
        {
          "indexed": false,
          "internalType": "string",
          "name": "latitude",
          "type": "string"
        },
        {
          "indexed": false,
          "internalType": "string",
          "name": "longitude",
          "type": "string"
        }
      ],
      "name": "ComplexAdded",
      "type": "event"
    },
    {
      "anonymous": false,
      "inputs": [
        {
          "indexed": false,
          "internalType": "string",
          "name": "id",
          "type": "string"
        },
        {
          "indexed": false,
          "internalType": "string",
          "name": "latitude",
          "type": "string"
        },
        {
          "indexed": false,
          "internalType": "string",
          "name": "longitude",
          "type": "string"
        },
        {
          "indexed": false,
          "internalType": "string",
          "name": "additionalInfo",
          "type": "string"
        }
      ],
      "name": "GeolocationAdded",
      "type": "event"
    },
    {
      "anonymous": false,
      "inputs": [
        {
          "indexed": true,
          "internalType": "address",
          "name": "previousOwner",
          "type": "address"
        },
        {
          "indexed": true,
          "internalType": "address",
          "name": "newOwner",
          "type": "address"
        }
      ],
      "name": "OwnershipTransferred",
      "type": "event"
    },
    {
      "inputs": [
        {
          "internalType": "string",
          "name": "_complexId",
          "type": "string"
        },
        {
          "internalType": "string",
          "name": "_complexName",
          "type": "string"
        },
        {
          "internalType": "string",
          "name": "_complexCountry",
          "type": "string"
        },
        {
          "internalType": "string",
          "name": "_complexAddress",
          "type": "string"
        },
        {
          "internalType": "string",
          "name": "_latitude",
          "type": "string"
        },
        {
          "internalType": "string",
          "name": "_longitude",
          "type": "string"
        },
        {
          "internalType": "string",
          "name": "_complexSiteType",
          "type": "string"
        },
        {
          "internalType": "string",
          "name": "_complexIndustry",
          "type": "string"
        }
      ],
      "name": "addComplex",
      "outputs": [],
      "stateMutability": "nonpayable",
      "type": "function"
    },
    {
      "inputs": [
        {
          "internalType": "address",
          "name": "_contributor",
          "type": "address"
        }
      ],
      "name": "addContributor",
      "outputs": [],
      "stateMutability": "nonpayable",
      "type": "function"
    },
    {
      "inputs": [
        {
          "internalType": "string",
          "name": "",
          "type": "string"
        }
      ],
      "name": "complexes",
      "outputs": [
        {
          "internalType": "string",
          "name": "complexId",
          "type": "string"
        },
        {
          "internalType": "string",
          "name": "complexName",
          "type": "string"
        },
        {
          "internalType": "string",
          "name": "complexCountry",
          "type": "string"
        },
        {
          "internalType": "string",
          "name": "complexAddress",
          "type": "string"
        },
        {
          "internalType": "string",
          "name": "complexSiteType",
          "type": "string"
        },
        {
          "internalType": "string",
          "name": "complexIndustry",
          "type": "string"
        },
        {
          "internalType": "string",
          "name": "latitude",
          "type": "string"
        },
        {
          "internalType": "string",
          "name": "longitude",
          "type": "string"
        }
      ],
      "stateMutability": "view",
      "type": "function"
    },
    {
      "inputs": [
        {
          "internalType": "address",
          "name": "",
          "type": "address"
        }
      ],
      "name": "contributors",
      "outputs": [
        {
          "internalType": "bool",
          "name": "",
          "type": "bool"
        }
      ],
      "stateMutability": "view",
      "type": "function"
    },
    {
      "inputs": [
        {
          "internalType": "string",
          "name": "",
          "type": "string"
        }
      ],
      "name": "geolocations",
      "outputs": [
        {
          "internalType": "string",
          "name": "latitude",
          "type": "string"
        },
        {
          "internalType": "string",
          "name": "longitude",
          "type": "string"
        },
        {
          "internalType": "string",
          "name": "additionalInfo",
          "type": "string"
        }
      ],
      "stateMutability": "view",
      "type": "function"
    },
    {
      "inputs": [
        {
          "internalType": "string",
          "name": "_complexId",
          "type": "string"
        }
      ],
      "name": "getComplex",
      "outputs": [
        {
          "components": [
            {
              "internalType": "string",
              "name": "complexId",
              "type": "string"
            },
            {
              "internalType": "string",
              "name": "complexName",
              "type": "string"
            },
            {
              "internalType": "string",
              "name": "complexCountry",
              "type": "string"
            },
            {
              "internalType": "string",
              "name": "complexAddress",
              "type": "string"
            },
            {
              "internalType": "string",
              "name": "complexSiteType",
              "type": "string"
            },
            {
              "internalType": "string",
              "name": "complexIndustry",
              "type": "string"
            },
            {
              "internalType": "string",
              "name": "latitude",
              "type": "string"
            },
            {
              "internalType": "string",
              "name": "longitude",
              "type": "string"
            }
          ],
          "internalType": "struct ComplexManagement.Complex",
          "name": "",
          "type": "tuple"
        }
      ],
      "stateMutability": "view",
      "type": "function"
    },
    {
      "inputs": [
        {
          "internalType": "string",
          "name": "id",
          "type": "string"
        }
      ],
      "name": "getGeolocation",
      "outputs": [
        {
          "components": [
            {
              "internalType": "string",
              "name": "latitude",
              "type": "string"
            },
            {
              "internalType": "string",
              "name": "longitude",
              "type": "string"
            },
            {
              "internalType": "string",
              "name": "additionalInfo",
              "type": "string"
            }
          ],
          "internalType": "struct Geolocation.GeoLocation",
          "name": "",
          "type": "tuple"
        }
      ],
      "stateMutability": "view",
      "type": "function"
    },
    {
      "inputs": [],
      "name": "owner",
      "outputs": [
        {
          "internalType": "address",
          "name": "",
          "type": "address"
        }
      ],
      "stateMutability": "view",
      "type": "function"
    },
    {
      "inputs": [
        {
          "internalType": "address",
          "name": "_contributor",
          "type": "address"
        }
      ],
      "name": "removeContributor",
      "outputs": [],
      "stateMutability": "nonpayable",
      "type": "function"
    },
    {
      "inputs": [],
      "name": "renounceOwnership",
      "outputs": [],
      "stateMutability": "nonpayable",
      "type": "function"
    },
    {
      "inputs": [
        {
          "internalType": "string",
          "name": "id",
          "type": "string"
        },
        {
          "internalType": "string",
          "name": "latitude",
          "type": "string"
        },
        {
          "internalType": "string",
          "name": "longitude",
          "type": "string"
        },
        {
          "internalType": "string",
          "name": "additionalInfo",
          "type": "string"
        }
      ],
      "name": "setGeolocation",
      "outputs": [],
      "stateMutability": "nonpayable",
      "type": "function"
    },
    {
      "inputs": [
        {
          "internalType": "address",
          "name": "newOwner",
          "type": "address"
        }
      ],
      "name": "transferOwnership",
      "outputs": [],
      "stateMutability": "nonpayable",
      "type": "function"
    }
  ],
  "bytecode": "0x60806040523480156200001157600080fd5b5060405162002504380380620025048339818101604052810190620000379190620001f4565b80600073ffffffffffffffffffffffffffffffffffffffff168173ffffffffffffffffffffffffffffffffffffffff1603620000ad5760006040517f1e4fbdf7000000000000000000000000000000000000000000000000000000008152600401620000a4919062000237565b60405180910390fd5b620000be81620000c660201b60201c565b505062000254565b60008060009054906101000a900473ffffffffffffffffffffffffffffffffffffffff169050816000806101000a81548173ffffffffffffffffffffffffffffffffffffffff021916908373ffffffffffffffffffffffffffffffffffffffff1602179055508173ffffffffffffffffffffffffffffffffffffffff168173ffffffffffffffffffffffffffffffffffffffff167f8be0079c531659141344cd1fd0a4f28419497f9722a3daafe3b4186f6b6457e060405160405180910390a35050565b600080fd5b600073ffffffffffffffffffffffffffffffffffffffff82169050919050565b6000620001bc826200018f565b9050919050565b620001ce81620001af565b8114620001da57600080fd5b50565b600081519050620001ee81620001c3565b92915050565b6000602082840312156200020d576200020c6200018a565b5b60006200021d84828501620001dd565b91505092915050565b6200023181620001af565b82525050565b60006020820190506200024e600083018462000226565b92915050565b6122a080620002646000396000f3fe608060405234801561001057600080fd5b50600436106100b45760003560e01c8063715018a611610071578063715018a6146101ce5780638da5cb5b146101d8578063b3f3ab5c146101f6578063b579184f14610212578063f2fde38b1461022e578063f8242c291461024a576100b4565b806305419a9c146100b95780631869819f146100e95780631e9810f7146101195780631f6d494214610135578063227eec2e1461016557806336a2204014610197575b600080fd5b6100d360048036038101906100ce919061174d565b610266565b6040516100e09190611873565b60405180910390f35b61010360048036038101906100fe919061174d565b610454565b6040516101109190611976565b60405180910390f35b610133600480360381019061012e9190611998565b61091d565b005b61014f600480360381019061014a9190611acd565b6109de565b60405161015c9190611b15565b60405180910390f35b61017f600480360381019061017a919061174d565b6109fe565b60405161018e93929190611b7a565b60405180910390f35b6101b160048036038101906101ac919061174d565b610bd6565b6040516101c5989796959493929190611bc6565b60405180910390f35b6101d6611074565b005b6101e0611088565b6040516101ed9190611c8b565b60405180910390f35b610210600480360381019061020b9190611acd565b6110b1565b005b61022c60048036038101906102279190611acd565b611114565b005b61024860048036038101906102439190611acd565b611177565b005b610264600480360381019061025f9190611ca6565b6111fd565b005b61026e61158d565b60018260405161027e9190611e78565b90815260200160405180910390206040518060600160405290816000820180546102a790611ebe565b80601f01602080910402602001604051908101604052809291908181526020018280546102d390611ebe565b80156103205780601f106102f557610100808354040283529160200191610320565b820191906000526020600020905b81548152906001019060200180831161030357829003601f168201915b5050505050815260200160018201805461033990611ebe565b80601f016020809104026020016040519081016040528092919081815260200182805461036590611ebe565b80156103b25780601f10610387576101008083540402835291602001916103b2565b820191906000526020600020905b81548152906001019060200180831161039557829003601f168201915b505050505081526020016002820180546103cb90611ebe565b80601f01602080910402602001604051908101604052809291908181526020018280546103f790611ebe565b80156104445780601f1061041957610100808354040283529160200191610444565b820191906000526020600020905b81548152906001019060200180831161042757829003601f168201915b5050505050815250509050919050565b61045c6115ae565b60028260405161046c9190611e78565b90815260200160405180910390206040518061010001604052908160008201805461049690611ebe565b80601f01602080910402602001604051908101604052809291908181526020018280546104c290611ebe565b801561050f5780601f106104e45761010080835404028352916020019161050f565b820191906000526020600020905b8154815290600101906020018083116104f257829003601f168201915b5050505050815260200160018201805461052890611ebe565b80601f016020809104026020016040519081016040528092919081815260200182805461055490611ebe565b80156105a15780601f10610576576101008083540402835291602001916105a1565b820191906000526020600020905b81548152906001019060200180831161058457829003601f168201915b505050505081526020016002820180546105ba90611ebe565b80601f01602080910402602001604051908101604052809291908181526020018280546105e690611ebe565b80156106335780601f1061060857610100808354040283529160200191610633565b820191906000526020600020905b81548152906001019060200180831161061657829003601f168201915b5050505050815260200160038201805461064c90611ebe565b80601f016020809104026020016040519081016040528092919081815260200182805461067890611ebe565b80156106c55780601f1061069a576101008083540402835291602001916106c5565b820191906000526020600020905b8154815290600101906020018083116106a857829003601f168201915b505050505081526020016004820180546106de90611ebe565b80601f016020809104026020016040519081016040528092919081815260200182805461070a90611ebe565b80156107575780601f1061072c57610100808354040283529160200191610757565b820191906000526020600020905b81548152906001019060200180831161073a57829003601f168201915b5050505050815260200160058201805461077090611ebe565b80601f016020809104026020016040519081016040528092919081815260200182805461079c90611ebe565b80156107e95780601f106107be576101008083540402835291602001916107e9565b820191906000526020600020905b8154815290600101906020018083116107cc57829003601f168201915b5050505050815260200160068201805461080290611ebe565b80601f016020809104026020016040519081016040528092919081815260200182805461082e90611ebe565b801561087b5780601f106108505761010080835404028352916020019161087b565b820191906000526020600020905b81548152906001019060200180831161085e57829003601f168201915b5050505050815260200160078201805461089490611ebe565b80601f01602080910402602001604051908101604052809291908181526020018280546108c090611ebe565b801561090d5780601f106108e25761010080835404028352916020019161090d565b820191906000526020600020905b8154815290600101906020018083116108f057829003601f168201915b5050505050815250509050919050565b6040518060600160405280848152602001838152602001828152506001856040516109489190611e78565b9081526020016040518091039020600082015181600001908161096b91906120a5565b50602082015181600101908161098191906120a5565b50604082015181600201908161099791906120a5565b509050507f19ececb2c6feac95111b03d8487478418f5146628679c8e1ce17e6e6537ec87e848484846040516109d09493929190612177565b60405180910390a150505050565b60036020528060005260406000206000915054906101000a900460ff1681565b600181805160208101820180518482526020830160208501208183528095505050505050600091509050806000018054610a3790611ebe565b80601f0160208091040260200160405190810160405280929190818152602001828054610a6390611ebe565b8015610ab05780601f10610a8557610100808354040283529160200191610ab0565b820191906000526020600020905b815481529060010190602001808311610a9357829003601f168201915b505050505090806001018054610ac590611ebe565b80601f0160208091040260200160405190810160405280929190818152602001828054610af190611ebe565b8015610b3e5780601f10610b1357610100808354040283529160200191610b3e565b820191906000526020600020905b815481529060010190602001808311610b2157829003601f168201915b505050505090806002018054610b5390611ebe565b80601f0160208091040260200160405190810160405280929190818152602001828054610b7f90611ebe565b8015610bcc5780601f10610ba157610100808354040283529160200191610bcc565b820191906000526020600020905b815481529060010190602001808311610baf57829003601f168201915b5050505050905083565b600281805160208101820180518482526020830160208501208183528095505050505050600091509050806000018054610c0f90611ebe565b80601f0160208091040260200160405190810160405280929190818152602001828054610c3b90611ebe565b8015610c885780601f10610c5d57610100808354040283529160200191610c88565b820191906000526020600020905b815481529060010190602001808311610c6b57829003601f168201915b505050505090806001018054610c9d90611ebe565b80601f0160208091040260200160405190810160405280929190818152602001828054610cc990611ebe565b8015610d165780601f10610ceb57610100808354040283529160200191610d16565b820191906000526020600020905b815481529060010190602001808311610cf957829003601f168201915b505050505090806002018054610d2b90611ebe565b80601f0160208091040260200160405190810160405280929190818152602001828054610d5790611ebe565b8015610da45780601f10610d7957610100808354040283529160200191610da4565b820191906000526020600020905b815481529060010190602001808311610d8757829003601f168201915b505050505090806003018054610db990611ebe565b80601f0160208091040260200160405190810160405280929190818152602001828054610de590611ebe565b8015610e325780601f10610e0757610100808354040283529160200191610e32565b820191906000526020600020905b815481529060010190602001808311610e1557829003601f168201915b505050505090806004018054610e4790611ebe565b80601f0160208091040260200160405190810160405280929190818152602001828054610e7390611ebe565b8015610ec05780601f10610e9557610100808354040283529160200191610ec0565b820191906000526020600020905b815481529060010190602001808311610ea357829003601f168201915b505050505090806005018054610ed590611ebe565b80601f0160208091040260200160405190810160405280929190818152602001828054610f0190611ebe565b8015610f4e5780601f10610f2357610100808354040283529160200191610f4e565b820191906000526020600020905b815481529060010190602001808311610f3157829003601f168201915b505050505090806006018054610f6390611ebe565b80601f0160208091040260200160405190810160405280929190818152602001828054610f8f90611ebe565b8015610fdc5780601f10610fb157610100808354040283529160200191610fdc565b820191906000526020600020905b815481529060010190602001808311610fbf57829003601f168201915b505050505090806007018054610ff190611ebe565b80601f016020809104026020016040519081016040528092919081815260200182805461101d90611ebe565b801561106a5780601f1061103f5761010080835404028352916020019161106a565b820191906000526020600020905b81548152906001019060200180831161104d57829003601f168201915b5050505050905088565b61107c61143a565b61108660006114c1565b565b60008060009054906101000a900473ffffffffffffffffffffffffffffffffffffffff16905090565b6110b961143a565b6000600360008373ffffffffffffffffffffffffffffffffffffffff1673ffffffffffffffffffffffffffffffffffffffff16815260200190815260200160002060006101000a81548160ff02191690831515021790555050565b61111c61143a565b6001600360008373ffffffffffffffffffffffffffffffffffffffff1673ffffffffffffffffffffffffffffffffffffffff16815260200190815260200160002060006101000a81548160ff02191690831515021790555050565b61117f61143a565b600073ffffffffffffffffffffffffffffffffffffffff168173ffffffffffffffffffffffffffffffffffffffff16036111f15760006040517f1e4fbdf70000000000000000000000000000000000000000000000000000000081526004016111e89190611c8b565b60405180910390fd5b6111fa816114c1565b50565b611205611585565b73ffffffffffffffffffffffffffffffffffffffff16611223611088565b73ffffffffffffffffffffffffffffffffffffffff16148061129557506003600061124c611585565b73ffffffffffffffffffffffffffffffffffffffff1673ffffffffffffffffffffffffffffffffffffffff16815260200190815260200160002060009054906101000a900460ff165b6112d4576040517f08c379a00000000000000000000000000000000000000000000000000000000081526004016112cb9061224a565b60405180910390fd5b6040518061010001604052808981526020018881526020018781526020018681526020018381526020018281526020018581526020018481525060028960405161131e9190611e78565b9081526020016040518091039020600082015181600001908161134191906120a5565b50602082015181600101908161135791906120a5565b50604082015181600201908161136d91906120a5565b50606082015181600301908161138391906120a5565b50608082015181600401908161139991906120a5565b5060a08201518160050190816113af91906120a5565b5060c08201518160060190816113c591906120a5565b5060e08201518160070190816113db91906120a5565b509050506113eb8885858861091d565b7fffe49d99c1a1d073fa916fc577c45e3f06bd791e65d7a26f1fb752447704d3b18888888886868a8a604051611428989796959493929190611bc6565b60405180910390a15050505050505050565b611442611585565b73ffffffffffffffffffffffffffffffffffffffff16611460611088565b73ffffffffffffffffffffffffffffffffffffffff16146114bf57611483611585565b6040517f118cdaa70000000000000000000000000000000000000000000000000000000081526004016114b69190611c8b565b60405180910390fd5b565b60008060009054906101000a900473ffffffffffffffffffffffffffffffffffffffff169050816000806101000a81548173ffffffffffffffffffffffffffffffffffffffff021916908373ffffffffffffffffffffffffffffffffffffffff1602179055508173ffffffffffffffffffffffffffffffffffffffff168173ffffffffffffffffffffffffffffffffffffffff167f8be0079c531659141344cd1fd0a4f28419497f9722a3daafe3b4186f6b6457e060405160405180910390a35050565b600033905090565b60405180606001604052806060815260200160608152602001606081525090565b60405180610100016040528060608152602001606081526020016060815260200160608152602001606081526020016060815260200160608152602001606081525090565b6000604051905090565b600080fd5b600080fd5b600080fd5b600080fd5b6000601f19601f8301169050919050565b7f4e487b7100000000000000000000000000000000000000000000000000000000600052604160045260246000fd5b61165a82611611565b810181811067ffffffffffffffff8211171561167957611678611622565b5b80604052505050565b600061168c6115f3565b90506116988282611651565b919050565b600067ffffffffffffffff8211156116b8576116b7611622565b5b6116c182611611565b9050602081019050919050565b82818337600083830152505050565b60006116f06116eb8461169d565b611682565b90508281526020810184848401111561170c5761170b61160c565b5b6117178482856116ce565b509392505050565b600082601f83011261173457611733611607565b5b81356117448482602086016116dd565b91505092915050565b600060208284031215611763576117626115fd565b5b600082013567ffffffffffffffff81111561178157611780611602565b5b61178d8482850161171f565b91505092915050565b600081519050919050565b600082825260208201905092915050565b60005b838110156117d05780820151818401526020810190506117b5565b60008484015250505050565b60006117e782611796565b6117f181856117a1565b93506118018185602086016117b2565b61180a81611611565b840191505092915050565b6000606083016000830151848203600086015261183282826117dc565b9150506020830151848203602086015261184c82826117dc565b9150506040830151848203604086015261186682826117dc565b9150508091505092915050565b6000602082019050818103600083015261188d8184611815565b905092915050565b60006101008301600083015184820360008601526118b382826117dc565b915050602083015184820360208601526118cd82826117dc565b915050604083015184820360408601526118e782826117dc565b9150506060830151848203606086015261190182826117dc565b9150506080830151848203608086015261191b82826117dc565b91505060a083015184820360a086015261193582826117dc565b91505060c083015184820360c086015261194f82826117dc565b91505060e083015184820360e086015261196982826117dc565b9150508091505092915050565b600060208201905081810360008301526119908184611895565b905092915050565b600080600080608085870312156119b2576119b16115fd565b5b600085013567ffffffffffffffff8111156119d0576119cf611602565b5b6119dc8782880161171f565b945050602085013567ffffffffffffffff8111156119fd576119fc611602565b5b611a098782880161171f565b935050604085013567ffffffffffffffff811115611a2a57611a29611602565b5b611a368782880161171f565b925050606085013567ffffffffffffffff811115611a5757611a56611602565b5b611a638782880161171f565b91505092959194509250565b600073ffffffffffffffffffffffffffffffffffffffff82169050919050565b6000611a9a82611a6f565b9050919050565b611aaa81611a8f565b8114611ab557600080fd5b50565b600081359050611ac781611aa1565b92915050565b600060208284031215611ae357611ae26115fd565b5b6000611af184828501611ab8565b91505092915050565b60008115159050919050565b611b0f81611afa565b82525050565b6000602082019050611b2a6000830184611b06565b92915050565b600082825260208201905092915050565b6000611b4c82611796565b611b568185611b30565b9350611b668185602086016117b2565b611b6f81611611565b840191505092915050565b60006060820190508181036000830152611b948186611b41565b90508181036020830152611ba88185611b41565b90508181036040830152611bbc8184611b41565b9050949350505050565b6000610100820190508181036000830152611be1818b611b41565b90508181036020830152611bf5818a611b41565b90508181036040830152611c098189611b41565b90508181036060830152611c1d8188611b41565b90508181036080830152611c318187611b41565b905081810360a0830152611c458186611b41565b905081810360c0830152611c598185611b41565b905081810360e0830152611c6d8184611b41565b90509998505050505050505050565b611c8581611a8f565b82525050565b6000602082019050611ca06000830184611c7c565b92915050565b600080600080600080600080610100898b031215611cc757611cc66115fd565b5b600089013567ffffffffffffffff811115611ce557611ce4611602565b5b611cf18b828c0161171f565b985050602089013567ffffffffffffffff811115611d1257611d11611602565b5b611d1e8b828c0161171f565b975050604089013567ffffffffffffffff811115611d3f57611d3e611602565b5b611d4b8b828c0161171f565b965050606089013567ffffffffffffffff811115611d6c57611d6b611602565b5b611d788b828c0161171f565b955050608089013567ffffffffffffffff811115611d9957611d98611602565b5b611da58b828c0161171f565b94505060a089013567ffffffffffffffff811115611dc657611dc5611602565b5b611dd28b828c0161171f565b93505060c089013567ffffffffffffffff811115611df357611df2611602565b5b611dff8b828c0161171f565b92505060e089013567ffffffffffffffff811115611e2057611e1f611602565b5b611e2c8b828c0161171f565b9150509295985092959890939650565b600081905092915050565b6000611e5282611796565b611e5c8185611e3c565b9350611e6c8185602086016117b2565b80840191505092915050565b6000611e848284611e47565b915081905092915050565b7f4e487b7100000000000000000000000000000000000000000000000000000000600052602260045260246000fd5b60006002820490506001821680611ed657607f821691505b602082108103611ee957611ee8611e8f565b5b50919050565b60008190508160005260206000209050919050565b60006020601f8301049050919050565b600082821b905092915050565b600060088302611f517fffffffffffffffffffffffffffffffffffffffffffffffffffffffffffffffff82611f14565b611f5b8683611f14565b95508019841693508086168417925050509392505050565b6000819050919050565b6000819050919050565b6000611fa2611f9d611f9884611f73565b611f7d565b611f73565b9050919050565b6000819050919050565b611fbc83611f87565b611fd0611fc882611fa9565b848454611f21565b825550505050565b600090565b611fe5611fd8565b611ff0818484611fb3565b505050565b5b8181101561201457612009600082611fdd565b600181019050611ff6565b5050565b601f8211156120595761202a81611eef565b61203384611f04565b81016020851015612042578190505b61205661204e85611f04565b830182611ff5565b50505b505050565b600082821c905092915050565b600061207c6000198460080261205e565b1980831691505092915050565b6000612095838361206b565b9150826002028217905092915050565b6120ae82611796565b67ffffffffffffffff8111156120c7576120c6611622565b5b6120d18254611ebe565b6120dc828285612018565b600060209050601f83116001811461210f57600084156120fd578287015190505b6121078582612089565b86555061216f565b601f19841661211d86611eef565b60005b8281101561214557848901518255600182019150602085019450602081019050612120565b86831015612162578489015161215e601f89168261206b565b8355505b6001600288020188555050505b505050505050565b600060808201905081810360008301526121918187611b41565b905081810360208301526121a58186611b41565b905081810360408301526121b98185611b41565b905081810360608301526121cd8184611b41565b905095945050505050565b7f4f776e61626c653a2063616c6c6572206973206e6f7420746865206f776e657260008201527f206e6f72206120636f6e7472696275746f720000000000000000000000000000602082015250565b6000612234603283611b30565b915061223f826121d8565b604082019050919050565b6000602082019050818103600083015261226381612227565b905091905056fea2646970667358221220a6c640635f8315c1a3cd31c15876e33638d6e3f7457560db59c8c1d8f5e05a7864736f6c63430008140033",
  "linkReferences": {},
  "deployedLinkReferences": {}
}