{
  "_format": "hh-sol-artifact-1",
  "contractName": "ProductPassport",
  "sourceName": "contracts/ProductPassport.sol",
  "abi": [
    {
      "inputs": [
        {
          "internalType": "address",
          "name": "initialOwner",
          "type": "address"
        }
      ],
      "stateMutability": "nonpayable",
      "type": "constructor"
    },
    {
      "inputs": [
        {
          "internalType": "address",
          "name": "owner",
          "type": "address"
        }
      ],
      "name": "OwnableInvalidOwner",
      "type": "error"
    },
    {
      "inputs": [
        {
          "internalType": "address",
          "name": "account",
          "type": "address"
        }
      ],
      "name": "OwnableUnauthorizedAccount",
      "type": "error"
    },
    {
      "anonymous": false,
      "inputs": [
        {
          "indexed": true,
          "internalType": "address",
          "name": "previousOwner",
          "type": "address"
        },
        {
          "indexed": true,
          "internalType": "address",
          "name": "newOwner",
          "type": "address"
        }
      ],
      "name": "OwnershipTransferred",
      "type": "event"
    },
    {
      "inputs": [
        {
          "internalType": "address",
          "name": "entity",
          "type": "address"
        }
      ],
      "name": "authorizeEntity",
      "outputs": [],
      "stateMutability": "nonpayable",
      "type": "function"
    },
    {
      "inputs": [
        {
          "internalType": "address",
          "name": "",
          "type": "address"
        }
      ],
      "name": "authorizedEntities",
      "outputs": [
        {
          "internalType": "bool",
          "name": "",
          "type": "bool"
        }
      ],
      "stateMutability": "view",
      "type": "function"
    },
    {
      "inputs": [
        {
          "internalType": "uint256",
          "name": "productId",
          "type": "uint256"
        }
      ],
      "name": "getProduct",
      "outputs": [
        {
          "components": [
            {
              "internalType": "string",
              "name": "uid",
              "type": "string"
            },
            {
              "internalType": "string",
              "name": "gtin",
              "type": "string"
            },
            {
              "internalType": "string",
              "name": "taricCode",
              "type": "string"
            },
            {
              "internalType": "string",
              "name": "manufacturerInfo",
              "type": "string"
            },
            {
              "internalType": "string",
              "name": "consumerInfo",
              "type": "string"
            },
            {
              "internalType": "string",
              "name": "endOfLifeInfo",
              "type": "string"
            }
          ],
          "internalType": "struct ProductDetails.Product",
          "name": "",
          "type": "tuple"
        }
      ],
      "stateMutability": "view",
      "type": "function"
    },
    {
      "inputs": [
        {
          "internalType": "uint256",
          "name": "productId",
          "type": "uint256"
        }
      ],
      "name": "getProductData",
      "outputs": [
        {
          "components": [
            {
              "internalType": "string",
              "name": "description",
              "type": "string"
            },
            {
              "internalType": "string[]",
              "name": "manuals",
              "type": "string[]"
            },
            {
              "internalType": "string[]",
              "name": "specifications",
              "type": "string[]"
            },
            {
              "internalType": "string",
              "name": "batchNumber",
              "type": "string"
            },
            {
              "internalType": "string",
              "name": "productionDate",
              "type": "string"
            },
            {
              "internalType": "string",
              "name": "expiryDate",
              "type": "string"
            },
            {
              "internalType": "string",
              "name": "certifications",
              "type": "string"
            },
            {
              "internalType": "string",
              "name": "warrantyInfo",
              "type": "string"
            },
            {
              "internalType": "string",
              "name": "materialComposition",
              "type": "string"
            },
            {
              "internalType": "string",
              "name": "complianceInfo",
              "type": "string"
            }
          ],
          "internalType": "struct ProductPassport.ProductData",
          "name": "",
          "type": "tuple"
        }
      ],
      "stateMutability": "view",
      "type": "function"
    },
    {
      "inputs": [],
      "name": "owner",
      "outputs": [
        {
          "internalType": "address",
          "name": "",
          "type": "address"
        }
      ],
      "stateMutability": "view",
      "type": "function"
    },
    {
      "inputs": [
        {
          "internalType": "uint256",
          "name": "",
          "type": "uint256"
        }
      ],
      "name": "productData",
      "outputs": [
        {
          "internalType": "string",
          "name": "description",
          "type": "string"
        },
        {
          "internalType": "string",
          "name": "batchNumber",
          "type": "string"
        },
        {
          "internalType": "string",
          "name": "productionDate",
          "type": "string"
        },
        {
          "internalType": "string",
          "name": "expiryDate",
          "type": "string"
        },
        {
          "internalType": "string",
          "name": "certifications",
          "type": "string"
        },
        {
          "internalType": "string",
          "name": "warrantyInfo",
          "type": "string"
        },
        {
          "internalType": "string",
          "name": "materialComposition",
          "type": "string"
        },
        {
          "internalType": "string",
          "name": "complianceInfo",
          "type": "string"
        }
      ],
      "stateMutability": "view",
      "type": "function"
    },
    {
      "inputs": [
        {
          "internalType": "uint256",
          "name": "",
          "type": "uint256"
        }
      ],
      "name": "products",
      "outputs": [
        {
          "internalType": "string",
          "name": "uid",
          "type": "string"
        },
        {
          "internalType": "string",
          "name": "gtin",
          "type": "string"
        },
        {
          "internalType": "string",
          "name": "taricCode",
          "type": "string"
        },
        {
          "internalType": "string",
          "name": "manufacturerInfo",
          "type": "string"
        },
        {
          "internalType": "string",
          "name": "consumerInfo",
          "type": "string"
        },
        {
          "internalType": "string",
          "name": "endOfLifeInfo",
          "type": "string"
        }
      ],
      "stateMutability": "view",
      "type": "function"
    },
    {
      "inputs": [],
      "name": "renounceOwnership",
      "outputs": [],
      "stateMutability": "nonpayable",
      "type": "function"
    },
    {
      "inputs": [
        {
          "internalType": "address",
          "name": "entity",
          "type": "address"
        }
      ],
      "name": "revokeEntity",
      "outputs": [],
      "stateMutability": "nonpayable",
      "type": "function"
    },
    {
      "inputs": [
        {
          "internalType": "uint256",
          "name": "productId",
          "type": "uint256"
        },
        {
          "internalType": "string",
          "name": "uid",
          "type": "string"
        },
        {
          "internalType": "string",
          "name": "gtin",
          "type": "string"
        },
        {
          "internalType": "string",
          "name": "taricCode",
          "type": "string"
        },
        {
          "internalType": "string",
          "name": "manufacturerInfo",
          "type": "string"
        },
        {
          "internalType": "string",
          "name": "consumerInfo",
          "type": "string"
        },
        {
          "internalType": "string",
          "name": "endOfLifeInfo",
          "type": "string"
        }
      ],
      "name": "setProduct",
      "outputs": [],
      "stateMutability": "nonpayable",
      "type": "function"
    },
    {
      "inputs": [
        {
          "internalType": "uint256",
          "name": "productId",
          "type": "uint256"
        },
        {
          "internalType": "string",
          "name": "description",
          "type": "string"
        },
        {
          "internalType": "string[]",
          "name": "manuals",
          "type": "string[]"
        },
        {
          "internalType": "string[]",
          "name": "specifications",
          "type": "string[]"
        },
        {
          "internalType": "string",
          "name": "batchNumber",
          "type": "string"
        },
        {
          "internalType": "string",
          "name": "productionDate",
          "type": "string"
        },
        {
          "internalType": "string",
          "name": "expiryDate",
          "type": "string"
        },
        {
          "internalType": "string",
          "name": "certifications",
          "type": "string"
        },
        {
          "internalType": "string",
          "name": "warrantyInfo",
          "type": "string"
        },
        {
          "internalType": "string",
          "name": "materialComposition",
          "type": "string"
        },
        {
          "internalType": "string",
          "name": "complianceInfo",
          "type": "string"
        }
      ],
      "name": "setProductData",
      "outputs": [],
      "stateMutability": "nonpayable",
      "type": "function"
    },
    {
      "inputs": [
        {
          "internalType": "address",
          "name": "newOwner",
          "type": "address"
        }
      ],
      "name": "transferOwnership",
      "outputs": [],
      "stateMutability": "nonpayable",
      "type": "function"
    }
  ],
  "bytecode": "0x60806040523480156200001157600080fd5b5060405162002da138038062002da18339818101604052810190620000379190620001f6565b80600073ffffffffffffffffffffffffffffffffffffffff168173ffffffffffffffffffffffffffffffffffffffff1603620000ad5760006040517f1e4fbdf7000000000000000000000000000000000000000000000000000000008152600401620000a4919062000239565b60405180910390fd5b620000be81620000c660201b60201c565b505062000256565b6000600260009054906101000a900473ffffffffffffffffffffffffffffffffffffffff16905081600260006101000a81548173ffffffffffffffffffffffffffffffffffffffff021916908373ffffffffffffffffffffffffffffffffffffffff1602179055508173ffffffffffffffffffffffffffffffffffffffff168173ffffffffffffffffffffffffffffffffffffffff167f8be0079c531659141344cd1fd0a4f28419497f9722a3daafe3b4186f6b6457e060405160405180910390a35050565b600080fd5b600073ffffffffffffffffffffffffffffffffffffffff82169050919050565b6000620001be8262000191565b9050919050565b620001d081620001b1565b8114620001dc57600080fd5b50565b600081519050620001f081620001c5565b92915050565b6000602082840312156200020f576200020e6200018c565b5b60006200021f84828501620001df565b91505092915050565b6200023381620001b1565b82525050565b600060208201905062000250600083018462000228565b92915050565b612b3b80620002666000396000f3fe608060405234801561001057600080fd5b50600436106100b45760003560e01c8063a3e8fe1511610071578063a3e8fe1514610199578063b9db15b4146101b5578063d6d0be9f146101e5578063d7b71f5f14610215578063e3ec242414610231578063f2fde38b1461024d576100b4565b806302031024146100b957806333616eee146100d5578063715018a6146101055780637acc0b201461010f5780638da5cb5b146101445780639f5ce91014610162575b600080fd5b6100d360048036038101906100ce9190611c74565b610269565b005b6100ef60048036038101906100ea9190611c74565b6102cb565b6040516100fc9190611cbc565b60405180910390f35b61010d6102eb565b005b61012960048036038101906101249190611d0d565b6102ff565b60405161013b96959493929190611dca565b60405180910390f35b61014c61066b565b6040516101599190611e64565b60405180910390f35b61017c60048036038101906101779190611d0d565b610695565b604051610190989796959493929190611e7f565b60405180910390f35b6101b360048036038101906101ae9190612150565b610b1d565b005b6101cf60048036038101906101ca9190611d0d565b610cfe565b6040516101dc9190612452565b60405180910390f35b6101ff60048036038101906101fa9190611d0d565b611096565b60405161020c919061264f565b60405180910390f35b61022f600480360381019061022a9190611c74565b611706565b005b61024b60048036038101906102469190612671565b611769565b005b61026760048036038101906102629190611c74565b6118c4565b005b61027161194a565b60018060008373ffffffffffffffffffffffffffffffffffffffff1673ffffffffffffffffffffffffffffffffffffffff16815260200190815260200160002060006101000a81548160ff02191690831515021790555050565b60016020528060005260406000206000915054906101000a900460ff1681565b6102f361194a565b6102fd60006119d1565b565b6000602052806000526040600020600091509050806000018054610322906127ea565b80601f016020809104026020016040519081016040528092919081815260200182805461034e906127ea565b801561039b5780601f106103705761010080835404028352916020019161039b565b820191906000526020600020905b81548152906001019060200180831161037e57829003601f168201915b5050505050908060010180546103b0906127ea565b80601f01602080910402602001604051908101604052809291908181526020018280546103dc906127ea565b80156104295780601f106103fe57610100808354040283529160200191610429565b820191906000526020600020905b81548152906001019060200180831161040c57829003601f168201915b50505050509080600201805461043e906127ea565b80601f016020809104026020016040519081016040528092919081815260200182805461046a906127ea565b80156104b75780601f1061048c576101008083540402835291602001916104b7565b820191906000526020600020905b81548152906001019060200180831161049a57829003601f168201915b5050505050908060030180546104cc906127ea565b80601f01602080910402602001604051908101604052809291908181526020018280546104f8906127ea565b80156105455780601f1061051a57610100808354040283529160200191610545565b820191906000526020600020905b81548152906001019060200180831161052857829003601f168201915b50505050509080600401805461055a906127ea565b80601f0160208091040260200160405190810160405280929190818152602001828054610586906127ea565b80156105d35780601f106105a8576101008083540402835291602001916105d3565b820191906000526020600020905b8154815290600101906020018083116105b657829003601f168201915b5050505050908060050180546105e8906127ea565b80601f0160208091040260200160405190810160405280929190818152602001828054610614906127ea565b80156106615780601f1061063657610100808354040283529160200191610661565b820191906000526020600020905b81548152906001019060200180831161064457829003601f168201915b5050505050905086565b6000600260009054906101000a900473ffffffffffffffffffffffffffffffffffffffff16905090565b60036020528060005260406000206000915090508060000180546106b8906127ea565b80601f01602080910402602001604051908101604052809291908181526020018280546106e4906127ea565b80156107315780601f1061070657610100808354040283529160200191610731565b820191906000526020600020905b81548152906001019060200180831161071457829003601f168201915b505050505090806003018054610746906127ea565b80601f0160208091040260200160405190810160405280929190818152602001828054610772906127ea565b80156107bf5780601f10610794576101008083540402835291602001916107bf565b820191906000526020600020905b8154815290600101906020018083116107a257829003601f168201915b5050505050908060040180546107d4906127ea565b80601f0160208091040260200160405190810160405280929190818152602001828054610800906127ea565b801561084d5780601f106108225761010080835404028352916020019161084d565b820191906000526020600020905b81548152906001019060200180831161083057829003601f168201915b505050505090806005018054610862906127ea565b80601f016020809104026020016040519081016040528092919081815260200182805461088e906127ea565b80156108db5780601f106108b0576101008083540402835291602001916108db565b820191906000526020600020905b8154815290600101906020018083116108be57829003601f168201915b5050505050908060060180546108f0906127ea565b80601f016020809104026020016040519081016040528092919081815260200182805461091c906127ea565b80156109695780601f1061093e57610100808354040283529160200191610969565b820191906000526020600020905b81548152906001019060200180831161094c57829003601f168201915b50505050509080600701805461097e906127ea565b80601f01602080910402602001604051908101604052809291908181526020018280546109aa906127ea565b80156109f75780601f106109cc576101008083540402835291602001916109f7565b820191906000526020600020905b8154815290600101906020018083116109da57829003601f168201915b505050505090806008018054610a0c906127ea565b80601f0160208091040260200160405190810160405280929190818152602001828054610a38906127ea565b8015610a855780601f10610a5a57610100808354040283529160200191610a85565b820191906000526020600020905b815481529060010190602001808311610a6857829003601f168201915b505050505090806009018054610a9a906127ea565b80601f0160208091040260200160405190810160405280929190818152602001828054610ac6906127ea565b8015610b135780601f10610ae857610100808354040283529160200191610b13565b820191906000526020600020905b815481529060010190602001808311610af657829003601f168201915b5050505050905088565b600160003373ffffffffffffffffffffffffffffffffffffffff1673ffffffffffffffffffffffffffffffffffffffff16815260200190815260200160002060009054906101000a900460ff16610ba9576040517f08c379a0000000000000000000000000000000000000000000000000000000008152600401610ba090612867565b60405180910390fd5b6040518061014001604052808b81526020018a815260200189815260200188815260200187815260200186815260200185815260200184815260200183815260200182815250600360008d81526020019081526020016000206000820151816000019081610c179190612a33565b506020820151816001019080519060200190610c34929190611a9f565b506040820151816002019080519060200190610c51929190611a9f565b506060820151816003019081610c679190612a33565b506080820151816004019081610c7d9190612a33565b5060a0820151816005019081610c939190612a33565b5060c0820151816006019081610ca99190612a33565b5060e0820151816007019081610cbf9190612a33565b50610100820151816008019081610cd69190612a33565b50610120820151816009019081610ced9190612a33565b509050505050505050505050505050565b610d06611af8565b6000808381526020019081526020016000206040518060c0016040529081600082018054610d33906127ea565b80601f0160208091040260200160405190810160405280929190818152602001828054610d5f906127ea565b8015610dac5780601f10610d8157610100808354040283529160200191610dac565b820191906000526020600020905b815481529060010190602001808311610d8f57829003601f168201915b50505050508152602001600182018054610dc5906127ea565b80601f0160208091040260200160405190810160405280929190818152602001828054610df1906127ea565b8015610e3e5780601f10610e1357610100808354040283529160200191610e3e565b820191906000526020600020905b815481529060010190602001808311610e2157829003601f168201915b50505050508152602001600282018054610e57906127ea565b80601f0160208091040260200160405190810160405280929190818152602001828054610e83906127ea565b8015610ed05780601f10610ea557610100808354040283529160200191610ed0565b820191906000526020600020905b815481529060010190602001808311610eb357829003601f168201915b50505050508152602001600382018054610ee9906127ea565b80601f0160208091040260200160405190810160405280929190818152602001828054610f15906127ea565b8015610f625780601f10610f3757610100808354040283529160200191610f62565b820191906000526020600020905b815481529060010190602001808311610f4557829003601f168201915b50505050508152602001600482018054610f7b906127ea565b80601f0160208091040260200160405190810160405280929190818152602001828054610fa7906127ea565b8015610ff45780601f10610fc957610100808354040283529160200191610ff4565b820191906000526020600020905b815481529060010190602001808311610fd757829003601f168201915b5050505050815260200160058201805461100d906127ea565b80601f0160208091040260200160405190810160405280929190818152602001828054611039906127ea565b80156110865780601f1061105b57610100808354040283529160200191611086565b820191906000526020600020905b81548152906001019060200180831161106957829003601f168201915b5050505050815250509050919050565b61109e611b2e565b60036000838152602001908152602001600020604051806101400160405290816000820180546110cd906127ea565b80601f01602080910402602001604051908101604052809291908181526020018280546110f9906127ea565b80156111465780601f1061111b57610100808354040283529160200191611146565b820191906000526020600020905b81548152906001019060200180831161112957829003601f168201915b5050505050815260200160018201805480602002602001604051908101604052809291908181526020016000905b82821015611220578382906000526020600020018054611193906127ea565b80601f01602080910402602001604051908101604052809291908181526020018280546111bf906127ea565b801561120c5780601f106111e15761010080835404028352916020019161120c565b820191906000526020600020905b8154815290600101906020018083116111ef57829003601f168201915b505050505081526020019060010190611174565b50505050815260200160028201805480602002602001604051908101604052809291908181526020016000905b828210156112f957838290600052602060002001805461126c906127ea565b80601f0160208091040260200160405190810160405280929190818152602001828054611298906127ea565b80156112e55780601f106112ba576101008083540402835291602001916112e5565b820191906000526020600020905b8154815290600101906020018083116112c857829003601f168201915b50505050508152602001906001019061124d565b505050508152602001600382018054611311906127ea565b80601f016020809104026020016040519081016040528092919081815260200182805461133d906127ea565b801561138a5780601f1061135f5761010080835404028352916020019161138a565b820191906000526020600020905b81548152906001019060200180831161136d57829003601f168201915b505050505081526020016004820180546113a3906127ea565b80601f01602080910402602001604051908101604052809291908181526020018280546113cf906127ea565b801561141c5780601f106113f15761010080835404028352916020019161141c565b820191906000526020600020905b8154815290600101906020018083116113ff57829003601f168201915b50505050508152602001600582018054611435906127ea565b80601f0160208091040260200160405190810160405280929190818152602001828054611461906127ea565b80156114ae5780601f10611483576101008083540402835291602001916114ae565b820191906000526020600020905b81548152906001019060200180831161149157829003601f168201915b505050505081526020016006820180546114c7906127ea565b80601f01602080910402602001604051908101604052809291908181526020018280546114f3906127ea565b80156115405780601f1061151557610100808354040283529160200191611540565b820191906000526020600020905b81548152906001019060200180831161152357829003601f168201915b50505050508152602001600782018054611559906127ea565b80601f0160208091040260200160405190810160405280929190818152602001828054611585906127ea565b80156115d25780601f106115a7576101008083540402835291602001916115d2565b820191906000526020600020905b8154815290600101906020018083116115b557829003601f168201915b505050505081526020016008820180546115eb906127ea565b80601f0160208091040260200160405190810160405280929190818152602001828054611617906127ea565b80156116645780601f1061163957610100808354040283529160200191611664565b820191906000526020600020905b81548152906001019060200180831161164757829003601f168201915b5050505050815260200160098201805461167d906127ea565b80601f01602080910402602001604051908101604052809291908181526020018280546116a9906127ea565b80156116f65780601f106116cb576101008083540402835291602001916116f6565b820191906000526020600020905b8154815290600101906020018083116116d957829003601f168201915b5050505050815250509050919050565b61170e61194a565b6000600160008373ffffffffffffffffffffffffffffffffffffffff1673ffffffffffffffffffffffffffffffffffffffff16815260200190815260200160002060006101000a81548160ff02191690831515021790555050565b600160003373ffffffffffffffffffffffffffffffffffffffff1673ffffffffffffffffffffffffffffffffffffffff16815260200190815260200160002060009054906101000a900460ff166117f5576040517f08c379a00000000000000000000000000000000000000000000000000000000081526004016117ec90612867565b60405180910390fd5b6040518060c001604052808781526020018681526020018581526020018481526020018381526020018281525060008089815260200190815260200160002060008201518160000190816118499190612a33565b50602082015181600101908161185f9190612a33565b5060408201518160020190816118759190612a33565b50606082015181600301908161188b9190612a33565b5060808201518160040190816118a19190612a33565b5060a08201518160050190816118b79190612a33565b5090505050505050505050565b6118cc61194a565b600073ffffffffffffffffffffffffffffffffffffffff168173ffffffffffffffffffffffffffffffffffffffff160361193e5760006040517f1e4fbdf70000000000000000000000000000000000000000000000000000000081526004016119359190611e64565b60405180910390fd5b611947816119d1565b50565b611952611a97565b73ffffffffffffffffffffffffffffffffffffffff1661197061066b565b73ffffffffffffffffffffffffffffffffffffffff16146119cf57611993611a97565b6040517f118cdaa70000000000000000000000000000000000000000000000000000000081526004016119c69190611e64565b60405180910390fd5b565b6000600260009054906101000a900473ffffffffffffffffffffffffffffffffffffffff16905081600260006101000a81548173ffffffffffffffffffffffffffffffffffffffff021916908373ffffffffffffffffffffffffffffffffffffffff1602179055508173ffffffffffffffffffffffffffffffffffffffff168173ffffffffffffffffffffffffffffffffffffffff167f8be0079c531659141344cd1fd0a4f28419497f9722a3daafe3b4186f6b6457e060405160405180910390a35050565b600033905090565b828054828255906000526020600020908101928215611ae7579160200282015b82811115611ae6578251829081611ad69190612a33565b5091602001919060010190611abf565b5b509050611af49190611b81565b5090565b6040518060c001604052806060815260200160608152602001606081526020016060815260200160608152602001606081525090565b604051806101400160405280606081526020016060815260200160608152602001606081526020016060815260200160608152602001606081526020016060815260200160608152602001606081525090565b5b80821115611ba15760008181611b989190611ba5565b50600101611b82565b5090565b508054611bb1906127ea565b6000825580601f10611bc35750611be2565b601f016020900490600052602060002090810190611be19190611be5565b5b50565b5b80821115611bfe576000816000905550600101611be6565b5090565b6000604051905090565b600080fd5b600080fd5b600073ffffffffffffffffffffffffffffffffffffffff82169050919050565b6000611c4182611c16565b9050919050565b611c5181611c36565b8114611c5c57600080fd5b50565b600081359050611c6e81611c48565b92915050565b600060208284031215611c8a57611c89611c0c565b5b6000611c9884828501611c5f565b91505092915050565b60008115159050919050565b611cb681611ca1565b82525050565b6000602082019050611cd16000830184611cad565b92915050565b6000819050919050565b611cea81611cd7565b8114611cf557600080fd5b50565b600081359050611d0781611ce1565b92915050565b600060208284031215611d2357611d22611c0c565b5b6000611d3184828501611cf8565b91505092915050565b600081519050919050565b600082825260208201905092915050565b60005b83811015611d74578082015181840152602081019050611d59565b60008484015250505050565b6000601f19601f8301169050919050565b6000611d9c82611d3a565b611da68185611d45565b9350611db6818560208601611d56565b611dbf81611d80565b840191505092915050565b600060c0820190508181036000830152611de48189611d91565b90508181036020830152611df88188611d91565b90508181036040830152611e0c8187611d91565b90508181036060830152611e208186611d91565b90508181036080830152611e348185611d91565b905081810360a0830152611e488184611d91565b9050979650505050505050565b611e5e81611c36565b82525050565b6000602082019050611e796000830184611e55565b92915050565b6000610100820190508181036000830152611e9a818b611d91565b90508181036020830152611eae818a611d91565b90508181036040830152611ec28189611d91565b90508181036060830152611ed68188611d91565b90508181036080830152611eea8187611d91565b905081810360a0830152611efe8186611d91565b905081810360c0830152611f128185611d91565b905081810360e0830152611f268184611d91565b90509998505050505050505050565b600080fd5b600080fd5b7f4e487b7100000000000000000000000000000000000000000000000000000000600052604160045260246000fd5b611f7782611d80565b810181811067ffffffffffffffff82111715611f9657611f95611f3f565b5b80604052505050565b6000611fa9611c02565b9050611fb58282611f6e565b919050565b600067ffffffffffffffff821115611fd557611fd4611f3f565b5b611fde82611d80565b9050602081019050919050565b82818337600083830152505050565b600061200d61200884611fba565b611f9f565b90508281526020810184848401111561202957612028611f3a565b5b612034848285611feb565b509392505050565b600082601f83011261205157612050611f35565b5b8135612061848260208601611ffa565b91505092915050565b600067ffffffffffffffff82111561208557612084611f3f565b5b602082029050602081019050919050565b600080fd5b60006120ae6120a98461206a565b611f9f565b905080838252602082019050602084028301858111156120d1576120d0612096565b5b835b8181101561211857803567ffffffffffffffff8111156120f6576120f5611f35565b5b808601612103898261203c565b855260208501945050506020810190506120d3565b5050509392505050565b600082601f83011261213757612136611f35565b5b813561214784826020860161209b565b91505092915050565b60008060008060008060008060008060006101608c8e03121561217657612175611c0c565b5b60006121848e828f01611cf8565b9b505060208c013567ffffffffffffffff8111156121a5576121a4611c11565b5b6121b18e828f0161203c565b9a505060408c013567ffffffffffffffff8111156121d2576121d1611c11565b5b6121de8e828f01612122565b99505060608c013567ffffffffffffffff8111156121ff576121fe611c11565b5b61220b8e828f01612122565b98505060808c013567ffffffffffffffff81111561222c5761222b611c11565b5b6122388e828f0161203c565b97505060a08c013567ffffffffffffffff81111561225957612258611c11565b5b6122658e828f0161203c565b96505060c08c013567ffffffffffffffff81111561228657612285611c11565b5b6122928e828f0161203c565b95505060e08c013567ffffffffffffffff8111156122b3576122b2611c11565b5b6122bf8e828f0161203c565b9450506101008c013567ffffffffffffffff8111156122e1576122e0611c11565b5b6122ed8e828f0161203c565b9350506101208c013567ffffffffffffffff81111561230f5761230e611c11565b5b61231b8e828f0161203c565b9250506101408c013567ffffffffffffffff81111561233d5761233c611c11565b5b6123498e828f0161203c565b9150509295989b509295989b9093969950565b600082825260208201905092915050565b600061237882611d3a565b612382818561235c565b9350612392818560208601611d56565b61239b81611d80565b840191505092915050565b600060c08301600083015184820360008601526123c3828261236d565b915050602083015184820360208601526123dd828261236d565b915050604083015184820360408601526123f7828261236d565b91505060608301518482036060860152612411828261236d565b9150506080830151848203608086015261242b828261236d565b91505060a083015184820360a0860152612445828261236d565b9150508091505092915050565b6000602082019050818103600083015261246c81846123a6565b905092915050565b600081519050919050565b600082825260208201905092915050565b6000819050602082019050919050565b60006124ac838361236d565b905092915050565b6000602082019050919050565b60006124cc82612474565b6124d6818561247f565b9350836020820285016124e885612490565b8060005b85811015612524578484038952815161250585826124a0565b9450612510836124b4565b925060208a019950506001810190506124ec565b50829750879550505050505092915050565b6000610140830160008301518482036000860152612554828261236d565b9150506020830151848203602086015261256e82826124c1565b9150506040830151848203604086015261258882826124c1565b915050606083015184820360608601526125a2828261236d565b915050608083015184820360808601526125bc828261236d565b91505060a083015184820360a08601526125d6828261236d565b91505060c083015184820360c08601526125f0828261236d565b91505060e083015184820360e086015261260a828261236d565b915050610100830151848203610100860152612626828261236d565b915050610120830151848203610120860152612642828261236d565b9150508091505092915050565b600060208201905081810360008301526126698184612536565b905092915050565b600080600080600080600060e0888a0312156126905761268f611c0c565b5b600061269e8a828b01611cf8565b975050602088013567ffffffffffffffff8111156126bf576126be611c11565b5b6126cb8a828b0161203c565b965050604088013567ffffffffffffffff8111156126ec576126eb611c11565b5b6126f88a828b0161203c565b955050606088013567ffffffffffffffff81111561271957612718611c11565b5b6127258a828b0161203c565b945050608088013567ffffffffffffffff81111561274657612745611c11565b5b6127528a828b0161203c565b93505060a088013567ffffffffffffffff81111561277357612772611c11565b5b61277f8a828b0161203c565b92505060c088013567ffffffffffffffff8111156127a05761279f611c11565b5b6127ac8a828b0161203c565b91505092959891949750929550565b7f4e487b7100000000000000000000000000000000000000000000000000000000600052602260045260246000fd5b6000600282049050600182168061280257607f821691505b602082108103612815576128146127bb565b5b50919050565b7f4e6f7420617574686f72697a6564000000000000000000000000000000000000600082015250565b6000612851600e83611d45565b915061285c8261281b565b602082019050919050565b6000602082019050818103600083015261288081612844565b9050919050565b60008190508160005260206000209050919050565b60006020601f8301049050919050565b600082821b905092915050565b6000600883026128e97fffffffffffffffffffffffffffffffffffffffffffffffffffffffffffffffff826128ac565b6128f386836128ac565b95508019841693508086168417925050509392505050565b6000819050919050565b600061293061292b61292684611cd7565b61290b565b611cd7565b9050919050565b6000819050919050565b61294a83612915565b61295e61295682612937565b8484546128b9565b825550505050565b600090565b612973612966565b61297e818484612941565b505050565b5b818110156129a25761299760008261296b565b600181019050612984565b5050565b601f8211156129e7576129b881612887565b6129c18461289c565b810160208510156129d0578190505b6129e46129dc8561289c565b830182612983565b50505b505050565b600082821c905092915050565b6000612a0a600019846008026129ec565b1980831691505092915050565b6000612a2383836129f9565b9150826002028217905092915050565b612a3c82611d3a565b67ffffffffffffffff811115612a5557612a54611f3f565b5b612a5f82546127ea565b612a6a8282856129a6565b600060209050601f831160018114612a9d5760008415612a8b578287015190505b612a958582612a17565b865550612afd565b601f198416612aab86612887565b60005b82811015612ad357848901518255600182019150602085019450602081019050612aae565b86831015612af05784890151612aec601f8916826129f9565b8355505b6001600288020188555050505b50505050505056fea26469706673582212207337019a63a72e89d999365c46957455aa2df12c06fd1140bfce85af5101ee5d64736f6c63430008140033",
  "linkReferences": {},
  "deployedLinkReferences": {}
}